{
  "contractName": "Lottery",
  "abi": [
    {
      "inputs": [],
      "stateMutability": "nonpayable",
      "type": "constructor"
    },
    {
      "inputs": [],
      "name": "lotteryId",
      "outputs": [
        {
          "internalType": "uint256",
          "name": "",
          "type": "uint256"
        }
      ],
      "stateMutability": "view",
      "type": "function"
    },
    {
      "inputs": [],
      "name": "owner",
      "outputs": [
        {
          "internalType": "address",
          "name": "",
          "type": "address"
        }
      ],
      "stateMutability": "view",
      "type": "function"
    },
    {
      "inputs": [
        {
          "internalType": "uint256",
          "name": "",
          "type": "uint256"
        }
      ],
      "name": "players",
      "outputs": [
        {
          "internalType": "address payable",
          "name": "",
          "type": "address"
        }
      ],
      "stateMutability": "view",
      "type": "function"
    },
    {
      "inputs": [
        {
          "internalType": "uint256",
          "name": "",
          "type": "uint256"
        }
      ],
      "name": "winners",
      "outputs": [
        {
          "internalType": "address",
          "name": "",
          "type": "address"
        }
      ],
      "stateMutability": "view",
      "type": "function"
    },
    {
      "inputs": [],
      "name": "getWinners",
      "outputs": [
        {
          "internalType": "address[]",
          "name": "",
          "type": "address[]"
        }
      ],
      "stateMutability": "view",
      "type": "function"
    },
    {
      "inputs": [],
      "name": "getBalance",
      "outputs": [
        {
          "internalType": "uint256",
          "name": "",
          "type": "uint256"
        }
      ],
      "stateMutability": "view",
      "type": "function"
    },
    {
      "inputs": [],
      "name": "getPlayers",
      "outputs": [
        {
          "internalType": "address payable[]",
          "name": "",
          "type": "address[]"
        }
      ],
      "stateMutability": "view",
      "type": "function"
    },
    {
      "inputs": [],
      "name": "enter",
      "outputs": [],
      "stateMutability": "payable",
      "type": "function"
    },
    {
      "inputs": [],
      "name": "getRandomNumber",
      "outputs": [
        {
          "internalType": "uint256",
          "name": "",
          "type": "uint256"
        }
      ],
      "stateMutability": "view",
      "type": "function"
    },
    {
      "inputs": [],
      "name": "getLotteryId",
      "outputs": [
        {
          "internalType": "uint256",
          "name": "",
          "type": "uint256"
        }
      ],
      "stateMutability": "view",
      "type": "function"
    },
    {
      "inputs": [],
      "name": "pickWinner",
      "outputs": [],
      "stateMutability": "nonpayable",
      "type": "function"
    }
  ],
  "bytecode": "0x608060405234801561000f575f80fd5b50335f806101000a81548173ffffffffffffffffffffffffffffffffffffffff021916908373ffffffffffffffffffffffffffffffffffffffff1602179055505f600381905550610c48806100635f395ff3fe60806040526004361061009b575f3560e01c8063a2fb117511610063578063a2fb11751461015d578063dbdff2c114610199578063df15c37e146101c3578063e580f47b146101ed578063e97dcb6214610217578063f71d96cb146102215761009b565b806312065fe01461009f5780635d495aea146100c95780638b5b9ccc146100df5780638da5cb5b14610109578063900aafaf14610133575b5f80fd5b3480156100aa575f80fd5b506100b361025d565b6040516100c091906107a6565b60405180910390f35b3480156100d4575f80fd5b506100dd610264565b005b3480156100ea575f80fd5b506100f3610468565b60405161010091906108a6565b60405180910390f35b348015610114575f80fd5b5061011d6104f3565b60405161012a91906108e6565b60405180910390f35b34801561013e575f80fd5b50610147610516565b60405161015491906107a6565b60405180910390f35b348015610168575f80fd5b50610183600480360381019061017e919061092d565b61051f565b60405161019091906108e6565b60405180910390f35b3480156101a4575f80fd5b506101ad61055a565b6040516101ba91906107a6565b60405180910390f35b3480156101ce575f80fd5b506101d76105ab565b6040516101e49190610a0f565b60405180910390f35b3480156101f8575f80fd5b50610201610636565b60405161020e91906107a6565b60405180910390f35b61021f61063c565b005b34801561022c575f80fd5b506102476004803603810190610242919061092d565b6106b1565b6040516102549190610a3e565b60405180910390f35b5f47905090565b5f8054906101000a900473ffffffffffffffffffffffffffffffffffffffff1673ffffffffffffffffffffffffffffffffffffffff163373ffffffffffffffffffffffffffffffffffffffff16146102ba575f80fd5b5f6001805490506102c961055a565b6102d39190610a84565b9050600181815481106102e9576102e8610ab4565b5b905f5260205f20015f9054906101000a900473ffffffffffffffffffffffffffffffffffffffff1673ffffffffffffffffffffffffffffffffffffffff166108fc4790811502906040515f60405180830381858888f19350505050158015610353573d5f803e3d5ffd5b5060026001828154811061036a57610369610ab4565b5b905f5260205f20015f9054906101000a900473ffffffffffffffffffffffffffffffffffffffff16908060018154018082558091505060019003905f5260205f20015f9091909190916101000a81548173ffffffffffffffffffffffffffffffffffffffff021916908373ffffffffffffffffffffffffffffffffffffffff16021790555060035f81548092919061040190610b0e565b91905055505f67ffffffffffffffff8111156104205761041f610b55565b5b60405190808252806020026020018201604052801561044e5781602001602082028036833780820191505090505b50600190805190602001906104649291906106ec565b5050565b606060018054806020026020016040519081016040528092919081815260200182805480156104e957602002820191905f5260205f20905b815f9054906101000a900473ffffffffffffffffffffffffffffffffffffffff1673ffffffffffffffffffffffffffffffffffffffff16815260200190600101908083116104a0575b5050505050905090565b5f8054906101000a900473ffffffffffffffffffffffffffffffffffffffff1681565b5f600354905090565b6002818154811061052e575f80fd5b905f5260205f20015f915054906101000a900473ffffffffffffffffffffffffffffffffffffffff1681565b5f805f9054906101000a900473ffffffffffffffffffffffffffffffffffffffff164260405160200161058e929190610be7565b604051602081830303815290604052805190602001205f1c905090565b6060600280548060200260200160405190810160405280929190818152602001828054801561062c57602002820191905f5260205f20905b815f9054906101000a900473ffffffffffffffffffffffffffffffffffffffff1673ffffffffffffffffffffffffffffffffffffffff16815260200190600101908083116105e3575b5050505050905090565b60035481565b66038d7ea4c6800034101561064f575f80fd5b600133908060018154018082558091505060019003905f5260205f20015f9091909190916101000a81548173ffffffffffffffffffffffffffffffffffffffff021916908373ffffffffffffffffffffffffffffffffffffffff160217905550565b600181815481106106c0575f80fd5b905f5260205f20015f915054906101000a900473ffffffffffffffffffffffffffffffffffffffff1681565b828054828255905f5260205f20908101928215610762579160200282015b82811115610761578251825f6101000a81548173ffffffffffffffffffffffffffffffffffffffff021916908373ffffffffffffffffffffffffffffffffffffffff1602179055509160200191906001019061070a565b5b50905061076f9190610773565b5090565b5b8082111561078a575f815f905550600101610774565b5090565b5f819050919050565b6107a08161078e565b82525050565b5f6020820190506107b95f830184610797565b92915050565b5f81519050919050565b5f82825260208201905092915050565b5f819050602082019050919050565b5f73ffffffffffffffffffffffffffffffffffffffff82169050919050565b5f610811826107e8565b9050919050565b61082181610807565b82525050565b5f6108328383610818565b60208301905092915050565b5f602082019050919050565b5f610854826107bf565b61085e81856107c9565b9350610869836107d9565b805f5b838110156108995781516108808882610827565b975061088b8361083e565b92505060018101905061086c565b5085935050505092915050565b5f6020820190508181035f8301526108be818461084a565b905092915050565b5f6108d0826107e8565b9050919050565b6108e0816108c6565b82525050565b5f6020820190506108f95f8301846108d7565b92915050565b5f80fd5b61090c8161078e565b8114610916575f80fd5b50565b5f8135905061092781610903565b92915050565b5f60208284031215610942576109416108ff565b5b5f61094f84828501610919565b91505092915050565b5f81519050919050565b5f82825260208201905092915050565b5f819050602082019050919050565b61098a816108c6565b82525050565b5f61099b8383610981565b60208301905092915050565b5f602082019050919050565b5f6109bd82610958565b6109c78185610962565b93506109d283610972565b805f5b83811015610a025781516109e98882610990565b97506109f4836109a7565b9250506001810190506109d5565b5085935050505092915050565b5f6020820190508181035f830152610a2781846109b3565b905092915050565b610a3881610807565b82525050565b5f602082019050610a515f830184610a2f565b92915050565b7f4e487b71000000000000000000000000000000000000000000000000000000005f52601260045260245ffd5b5f610a8e8261078e565b9150610a998361078e565b925082610aa957610aa8610a57565b5b828206905092915050565b7f4e487b71000000000000000000000000000000000000000000000000000000005f52603260045260245ffd5b7f4e487b71000000000000000000000000000000000000000000000000000000005f52601160045260245ffd5b5f610b188261078e565b91507fffffffffffffffffffffffffffffffffffffffffffffffffffffffffffffffff8203610b4a57610b49610ae1565b5b600182019050919050565b7f4e487b71000000000000000000000000000000000000000000000000000000005f52604160045260245ffd5b5f8160601b9050919050565b5f610b9882610b82565b9050919050565b5f610ba982610b8e565b9050919050565b610bc1610bbc826108c6565b610b9f565b82525050565b5f819050919050565b610be1610bdc8261078e565b610bc7565b82525050565b5f610bf28285610bb0565b601482019150610c028284610bd0565b602082019150819050939250505056fea26469706673582212205ac7e44e17aa0c944bb90d904f721c74262c039f6ddbaa6b573b27173dcf989464736f6c63430008150033",
  "immutableReferences": {},
  "source": "// SPDX-License-Identifier: MIT\r\n\r\npragma solidity ^0.8.15;\r\n\r\ncontract Lottery {\r\n    address public owner;\r\n    address payable[] public players;\r\n    address[] public winners;\r\n    uint public lotteryId;\r\n\r\n    constructor() {\r\n        owner = msg.sender;\r\n        lotteryId = 0;\r\n    }\r\n\r\n    function getWinners() public view returns (address[] memory){\r\n        return winners;\r\n    }\r\n\r\n    function getBalance() public view returns (uint) {\r\n        return address(this).balance;\r\n    }\r\n\r\n    function getPlayers() public view returns (address payable[] memory) {\r\n        return players;\r\n    }\r\n\r\n    function enter() public payable {\r\n        require(msg.value >= .001 ether);\r\n\r\n        // address of player entering lottery\r\n        players.push(payable(msg.sender));\r\n    }\r\n\r\n    function getRandomNumber() public view returns (uint) {\r\n        return uint(keccak256(abi.encodePacked(owner, block.timestamp)));\r\n    }\r\n\r\n    function getLotteryId() public view returns(uint) {\r\n        return lotteryId;\r\n    }\r\n\r\n\r\n    function pickWinner() public onlyOwner {\r\n        uint randomIndex = getRandomNumber() % players.length;\r\n        players[randomIndex].transfer(address(this).balance);\r\n        winners.push(players[randomIndex]);\r\n        lotteryId++;\r\n\r\n        // Clear the players array. ['player1', 'player2']  []\r\n        players = new address payable[](0);\r\n    }\r\n\r\n    modifier onlyOwner() {\r\n      require(msg.sender == owner);\r\n      _;\r\n    }\r\n}\r\n",
  "sourcePath": "C:\\Users\\iroum\\OneDrive\\Documents\\GitHub\\vastefrr\\lottery-dapp-youtube\\backend\\contracts\\Lottery.sol",
  "compiler": {
    "name": "solc",
    "version": "0.8.21+commit.d9974bed.Emscripten.clang"
  },
  "schemaVersion": "3.4.16",
  "updatedAt": "2023-11-16T11:25:29.200Z",
  "devdoc": {
    "kind": "dev",
    "methods": {},
    "version": 1
  },
  "userdoc": {
    "kind": "user",
    "methods": {},
    "version": 1
  }
}